{
  "_format": "hh-sol-artifact-1",
  "contractName": "StakingRewards",
  "sourceName": "contracts/StakingReward.sol",
  "abi": [
    {
      "inputs": [
        {
          "internalType": "address",
          "name": "_stakingToken",
          "type": "address"
        },
        {
          "internalType": "address",
          "name": "_rewardsToken",
          "type": "address"
        }
      ],
      "stateMutability": "nonpayable",
      "type": "constructor"
    },
    {
      "inputs": [
        {
          "internalType": "address",
          "name": "",
          "type": "address"
        }
      ],
      "name": "balanceOf",
      "outputs": [
        {
          "internalType": "uint256",
          "name": "",
          "type": "uint256"
        }
      ],
      "stateMutability": "view",
      "type": "function"
    },
    {
      "inputs": [],
      "name": "duration",
      "outputs": [
        {
          "internalType": "uint256",
          "name": "",
          "type": "uint256"
        }
      ],
      "stateMutability": "view",
      "type": "function"
    },
    {
      "inputs": [
        {
          "internalType": "address",
          "name": "_account",
          "type": "address"
        }
      ],
      "name": "earned",
      "outputs": [
        {
          "internalType": "uint256",
          "name": "",
          "type": "uint256"
        }
      ],
      "stateMutability": "view",
      "type": "function"
    },
    {
      "inputs": [],
      "name": "finishAt",
      "outputs": [
        {
          "internalType": "uint256",
          "name": "",
          "type": "uint256"
        }
      ],
      "stateMutability": "view",
      "type": "function"
    },
    {
      "inputs": [],
      "name": "getReward",
      "outputs": [],
      "stateMutability": "nonpayable",
      "type": "function"
    },
    {
      "inputs": [],
      "name": "lastTimeRewardApplicable",
      "outputs": [
        {
          "internalType": "uint256",
          "name": "",
          "type": "uint256"
        }
      ],
      "stateMutability": "view",
      "type": "function"
    },
    {
      "inputs": [
        {
          "internalType": "uint256",
          "name": "_amount",
          "type": "uint256"
        }
      ],
      "name": "notifyRewardAmount",
      "outputs": [],
      "stateMutability": "nonpayable",
      "type": "function"
    },
    {
      "inputs": [],
      "name": "owner",
      "outputs": [
        {
          "internalType": "address",
          "name": "",
          "type": "address"
        }
      ],
      "stateMutability": "view",
      "type": "function"
    },
    {
      "inputs": [],
      "name": "rewardPerToken",
      "outputs": [
        {
          "internalType": "uint256",
          "name": "",
          "type": "uint256"
        }
      ],
      "stateMutability": "view",
      "type": "function"
    },
    {
      "inputs": [],
      "name": "rewardPerTokenStored",
      "outputs": [
        {
          "internalType": "uint256",
          "name": "",
          "type": "uint256"
        }
      ],
      "stateMutability": "view",
      "type": "function"
    },
    {
      "inputs": [],
      "name": "rewardRate",
      "outputs": [
        {
          "internalType": "uint256",
          "name": "",
          "type": "uint256"
        }
      ],
      "stateMutability": "view",
      "type": "function"
    },
    {
      "inputs": [
        {
          "internalType": "address",
          "name": "",
          "type": "address"
        }
      ],
      "name": "rewards",
      "outputs": [
        {
          "internalType": "uint256",
          "name": "",
          "type": "uint256"
        }
      ],
      "stateMutability": "view",
      "type": "function"
    },
    {
      "inputs": [],
      "name": "rewardsToken",
      "outputs": [
        {
          "internalType": "contract IERC20",
          "name": "",
          "type": "address"
        }
      ],
      "stateMutability": "view",
      "type": "function"
    },
    {
      "inputs": [
        {
          "internalType": "uint256",
          "name": "_duration",
          "type": "uint256"
        }
      ],
      "name": "setRewardsDuration",
      "outputs": [],
      "stateMutability": "nonpayable",
      "type": "function"
    },
    {
      "inputs": [
        {
          "internalType": "uint256",
          "name": "_amount",
          "type": "uint256"
        }
      ],
      "name": "stake",
      "outputs": [],
      "stateMutability": "nonpayable",
      "type": "function"
    },
    {
      "inputs": [],
      "name": "stakingToken",
      "outputs": [
        {
          "internalType": "contract IERC20",
          "name": "",
          "type": "address"
        }
      ],
      "stateMutability": "view",
      "type": "function"
    },
    {
      "inputs": [],
      "name": "totalSupply",
      "outputs": [
        {
          "internalType": "uint256",
          "name": "",
          "type": "uint256"
        }
      ],
      "stateMutability": "view",
      "type": "function"
    },
    {
      "inputs": [
        {
          "internalType": "uint256",
          "name": "amount",
          "type": "uint256"
        }
      ],
      "name": "unstake",
      "outputs": [],
      "stateMutability": "nonpayable",
      "type": "function"
    },
    {
      "inputs": [],
      "name": "updatedAt",
      "outputs": [
        {
          "internalType": "uint256",
          "name": "",
          "type": "uint256"
        }
      ],
      "stateMutability": "view",
      "type": "function"
    },
    {
      "inputs": [
        {
          "internalType": "address",
          "name": "",
          "type": "address"
        }
      ],
      "name": "userRewardPerTokenPaid",
      "outputs": [
        {
          "internalType": "uint256",
          "name": "",
          "type": "uint256"
        }
      ],
      "stateMutability": "view",
      "type": "function"
    }
  ],
  "bytecode": "0x60c060405234801561001057600080fd5b50604051611a30380380611a3083398181016040528101906100329190610144565b336000806101000a81548173ffffffffffffffffffffffffffffffffffffffff021916908373ffffffffffffffffffffffffffffffffffffffff1602179055508173ffffffffffffffffffffffffffffffffffffffff1660808173ffffffffffffffffffffffffffffffffffffffff16815250508073ffffffffffffffffffffffffffffffffffffffff1660a08173ffffffffffffffffffffffffffffffffffffffff16815250505050610184565b600080fd5b600073ffffffffffffffffffffffffffffffffffffffff82169050919050565b6000610111826100e6565b9050919050565b61012181610106565b811461012c57600080fd5b50565b60008151905061013e81610118565b92915050565b6000806040838503121561015b5761015a6100e1565b5b60006101698582860161012f565b925050602061017a8582860161012f565b9150509250929050565b60805160a05161186b6101c5600039600081816109b201528181610c2b01526110ed0152600081816106f401528181610ced0152610e93015261186b6000f3fe608060405234801561001057600080fd5b506004361061012b5760003560e01c80637519ab50116100ad578063a694fc3a11610071578063a694fc3a14610322578063cc1a378f1461033e578063cd3daf9d1461035a578063d1af0c7d14610378578063df136d65146103965761012b565b80637519ab501461027a5780637b0a47ee1461029857806380faa57d146102b65780638b876347146102d45780638da5cb5b146103045761012b565b80633c6b16ab116100f45780633c6b16ab146101e85780633d18b9121461020457806367d3b4881461020e57806370a082311461022c57806372f702f31461025c5761012b565b80628cc262146101305780630700037d146101605780630fb5a6b41461019057806318160ddd146101ae5780632e17de78146101cc575b600080fd5b61014a60048036038101906101459190611192565b6103b4565b60405161015791906111d8565b60405180910390f35b61017a60048036038101906101759190611192565b6104b6565b60405161018791906111d8565b60405180910390f35b6101986104ce565b6040516101a591906111d8565b60405180910390f35b6101b66104d4565b6040516101c391906111d8565b60405180910390f35b6101e660048036038101906101e1919061121f565b6104da565b005b61020260048036038101906101fd919061121f565b610795565b005b61020c610ab3565b005b610216610ccd565b60405161022391906111d8565b60405180910390f35b61024660048036038101906102419190611192565b610cd3565b60405161025391906111d8565b60405180910390f35b610264610ceb565b60405161027191906112ab565b60405180910390f35b610282610d0f565b60405161028f91906111d8565b60405180910390f35b6102a0610d15565b6040516102ad91906111d8565b60405180910390f35b6102be610d1b565b6040516102cb91906111d8565b60405180910390f35b6102ee60048036038101906102e99190611192565b610d2e565b6040516102fb91906111d8565b60405180910390f35b61030c610d46565b60405161031991906112d5565b60405180910390f35b61033c6004803603810190610337919061121f565b610d6a565b005b6103586004803603810190610353919061121f565b610fa5565b005b610362611081565b60405161036f91906111d8565b60405180910390f35b6103806110eb565b60405161038d91906112ab565b60405180910390f35b61039e61110f565b6040516103ab91906111d8565b60405180910390f35b6000600760008373ffffffffffffffffffffffffffffffffffffffff1673ffffffffffffffffffffffffffffffffffffffff16815260200190815260200160002054670de0b6b3a7640000600660008573ffffffffffffffffffffffffffffffffffffffff1673ffffffffffffffffffffffffffffffffffffffff16815260200190815260200160002054610447611081565b610451919061131f565b600960008673ffffffffffffffffffffffffffffffffffffffff1673ffffffffffffffffffffffffffffffffffffffff1681526020019081526020016000205461049b9190611353565b6104a591906113c4565b6104af91906113f5565b9050919050565b60076020528060005260406000206000915090505481565b60015481565b60085481565b336104e3611081565b6005819055506104f1610d1b565b600381905550600073ffffffffffffffffffffffffffffffffffffffff168173ffffffffffffffffffffffffffffffffffffffff16146105be57610534816103b4565b600760008373ffffffffffffffffffffffffffffffffffffffff1673ffffffffffffffffffffffffffffffffffffffff16815260200190815260200160002081905550600554600660008373ffffffffffffffffffffffffffffffffffffffff1673ffffffffffffffffffffffffffffffffffffffff168152602001908152602001600020819055505b60008211610601576040517f08c379a00000000000000000000000000000000000000000000000000000000081526004016105f890611486565b60405180910390fd5b81600960003373ffffffffffffffffffffffffffffffffffffffff1673ffffffffffffffffffffffffffffffffffffffff168152602001908152602001600020541015610683576040517f08c379a000000000000000000000000000000000000000000000000000000000815260040161067a906114f2565b60405180910390fd5b8160086000828254610695919061131f565b9250508190555081600960003373ffffffffffffffffffffffffffffffffffffffff1673ffffffffffffffffffffffffffffffffffffffff16815260200190815260200160002060008282546106eb919061131f565b925050819055507f000000000000000000000000000000000000000000000000000000000000000073ffffffffffffffffffffffffffffffffffffffff1663a9059cbb33846040518363ffffffff1660e01b815260040161074d929190611512565b6020604051808303816000875af115801561076c573d6000803e3d6000fd5b505050506040513d601f19601f820116820180604052508101906107909190611573565b505050565b60008054906101000a900473ffffffffffffffffffffffffffffffffffffffff1673ffffffffffffffffffffffffffffffffffffffff163373ffffffffffffffffffffffffffffffffffffffff1614610823576040517f08c379a000000000000000000000000000000000000000000000000000000000815260040161081a906115ec565b60405180910390fd5b600061082d611081565b60058190555061083b610d1b565b600381905550600073ffffffffffffffffffffffffffffffffffffffff168173ffffffffffffffffffffffffffffffffffffffff16146109085761087e816103b4565b600760008373ffffffffffffffffffffffffffffffffffffffff1673ffffffffffffffffffffffffffffffffffffffff16815260200190815260200160002081905550600554600660008373ffffffffffffffffffffffffffffffffffffffff1673ffffffffffffffffffffffffffffffffffffffff168152602001908152602001600020819055505b60025442111561092b576001548261092091906113c4565b60048190555061096b565b60004260025461093b919061131f565b6004546109489190611353565b9050600154838261095991906113f5565b61096391906113c4565b600481905550505b6000600454116109b0576040517f08c379a00000000000000000000000000000000000000000000000000000000081526004016109a790611658565b60405180910390fd5b7f000000000000000000000000000000000000000000000000000000000000000073ffffffffffffffffffffffffffffffffffffffff166370a08231306040518263ffffffff1660e01b8152600401610a0991906112d5565b602060405180830381865afa158015610a26573d6000803e3d6000fd5b505050506040513d601f19601f82011682018060405250810190610a4a919061168d565b600154600454610a5a9190611353565b1115610a9b576040517f08c379a0000000000000000000000000000000000000000000000000000000008152600401610a9290611706565b60405180910390fd5b60015442610aa991906113f5565b6002819055505050565b33610abc611081565b600581905550610aca610d1b565b600381905550600073ffffffffffffffffffffffffffffffffffffffff168173ffffffffffffffffffffffffffffffffffffffff1614610b9757610b0d816103b4565b600760008373ffffffffffffffffffffffffffffffffffffffff1673ffffffffffffffffffffffffffffffffffffffff16815260200190815260200160002081905550600554600660008373ffffffffffffffffffffffffffffffffffffffff1673ffffffffffffffffffffffffffffffffffffffff168152602001908152602001600020819055505b6000600760003373ffffffffffffffffffffffffffffffffffffffff1673ffffffffffffffffffffffffffffffffffffffff1681526020019081526020016000205490506000811115610cc9576000600760003373ffffffffffffffffffffffffffffffffffffffff1673ffffffffffffffffffffffffffffffffffffffff168152602001908152602001600020819055507f000000000000000000000000000000000000000000000000000000000000000073ffffffffffffffffffffffffffffffffffffffff1663a9059cbb33836040518363ffffffff1660e01b8152600401610c84929190611512565b6020604051808303816000875af1158015610ca3573d6000803e3d6000fd5b505050506040513d601f19601f82011682018060405250810190610cc79190611573565b505b5050565b60025481565b60096020528060005260406000206000915090505481565b7f000000000000000000000000000000000000000000000000000000000000000081565b60035481565b60045481565b6000610d2942600254611115565b905090565b60066020528060005260406000206000915090505481565b60008054906101000a900473ffffffffffffffffffffffffffffffffffffffff1681565b33610d73611081565b600581905550610d81610d1b565b600381905550600073ffffffffffffffffffffffffffffffffffffffff168173ffffffffffffffffffffffffffffffffffffffff1614610e4e57610dc4816103b4565b600760008373ffffffffffffffffffffffffffffffffffffffff1673ffffffffffffffffffffffffffffffffffffffff16815260200190815260200160002081905550600554600660008373ffffffffffffffffffffffffffffffffffffffff1673ffffffffffffffffffffffffffffffffffffffff168152602001908152602001600020819055505b60008211610e91576040517f08c379a0000000000000000000000000000000000000000000000000000000008152600401610e8890611772565b60405180910390fd5b7f000000000000000000000000000000000000000000000000000000000000000073ffffffffffffffffffffffffffffffffffffffff166323b872dd3330856040518463ffffffff1660e01b8152600401610eee93929190611792565b6020604051808303816000875af1158015610f0d573d6000803e3d6000fd5b505050506040513d601f19601f82011682018060405250810190610f319190611573565b5081600960003373ffffffffffffffffffffffffffffffffffffffff1673ffffffffffffffffffffffffffffffffffffffff1681526020019081526020016000206000828254610f8191906113f5565b925050819055508160086000828254610f9a91906113f5565b925050819055505050565b60008054906101000a900473ffffffffffffffffffffffffffffffffffffffff1673ffffffffffffffffffffffffffffffffffffffff163373ffffffffffffffffffffffffffffffffffffffff1614611033576040517f08c379a000000000000000000000000000000000000000000000000000000000815260040161102a906115ec565b60405180910390fd5b4260025410611077576040517f08c379a000000000000000000000000000000000000000000000000000000000815260040161106e90611815565b60405180910390fd5b8060018190555050565b600080600854036110965760055490506110e8565b600854670de0b6b3a76400006003546110ad610d1b565b6110b7919061131f565b6004546110c49190611353565b6110ce9190611353565b6110d891906113c4565b6005546110e591906113f5565b90505b90565b7f000000000000000000000000000000000000000000000000000000000000000081565b60055481565b6000818311156111255781611127565b825b905092915050565b600080fd5b600073ffffffffffffffffffffffffffffffffffffffff82169050919050565b600061115f82611134565b9050919050565b61116f81611154565b811461117a57600080fd5b50565b60008135905061118c81611166565b92915050565b6000602082840312156111a8576111a761112f565b5b60006111b68482850161117d565b91505092915050565b6000819050919050565b6111d2816111bf565b82525050565b60006020820190506111ed60008301846111c9565b92915050565b6111fc816111bf565b811461120757600080fd5b50565b600081359050611219816111f3565b92915050565b6000602082840312156112355761123461112f565b5b60006112438482850161120a565b91505092915050565b6000819050919050565b600061127161126c61126784611134565b61124c565b611134565b9050919050565b600061128382611256565b9050919050565b600061129582611278565b9050919050565b6112a58161128a565b82525050565b60006020820190506112c0600083018461129c565b92915050565b6112cf81611154565b82525050565b60006020820190506112ea60008301846112c6565b92915050565b7f4e487b7100000000000000000000000000000000000000000000000000000000600052601160045260246000fd5b600061132a826111bf565b9150611335836111bf565b925082820390508181111561134d5761134c6112f0565b5b92915050565b600061135e826111bf565b9150611369836111bf565b9250828202611377816111bf565b9150828204841483151761138e5761138d6112f0565b5b5092915050565b7f4e487b7100000000000000000000000000000000000000000000000000000000600052601260045260246000fd5b60006113cf826111bf565b91506113da836111bf565b9250826113ea576113e9611395565b5b828204905092915050565b6000611400826111bf565b915061140b836111bf565b9250828201905080821115611423576114226112f0565b5b92915050565b600082825260208201905092915050565b7f43616e6e6f7420756e7374616b65203000000000000000000000000000000000600082015250565b6000611470601083611429565b915061147b8261143a565b602082019050919050565b6000602082019050818103600083015261149f81611463565b9050919050565b7f496e73756666696369656e74207374616b65642062616c616e63650000000000600082015250565b60006114dc601b83611429565b91506114e7826114a6565b602082019050919050565b6000602082019050818103600083015261150b816114cf565b9050919050565b600060408201905061152760008301856112c6565b61153460208301846111c9565b9392505050565b60008115159050919050565b6115508161153b565b811461155b57600080fd5b50565b60008151905061156d81611547565b92915050565b6000602082840312156115895761158861112f565b5b60006115978482850161155e565b91505092915050565b7f6e6f74206f776e65720000000000000000000000000000000000000000000000600082015250565b60006115d6600983611429565b91506115e1826115a0565b602082019050919050565b60006020820190508181036000830152611605816115c9565b9050919050565b7f7265776172642072617465203d20300000000000000000000000000000000000600082015250565b6000611642600f83611429565b915061164d8261160c565b602082019050919050565b6000602082019050818103600083015261167181611635565b9050919050565b600081519050611687816111f3565b92915050565b6000602082840312156116a3576116a261112f565b5b60006116b184828501611678565b91505092915050565b7f72657761726420616d6f756e74203e2062616c616e6365000000000000000000600082015250565b60006116f0601783611429565b91506116fb826116ba565b602082019050919050565b6000602082019050818103600083015261171f816116e3565b9050919050565b7f616d6f756e74203d203000000000000000000000000000000000000000000000600082015250565b600061175c600a83611429565b915061176782611726565b602082019050919050565b6000602082019050818103600083015261178b8161174f565b9050919050565b60006060820190506117a760008301866112c6565b6117b460208301856112c6565b6117c160408301846111c9565b949350505050565b7f726577617264206475726174696f6e206e6f742066696e697368656400000000600082015250565b60006117ff601c83611429565b915061180a826117c9565b602082019050919050565b6000602082019050818103600083015261182e816117f2565b905091905056fea2646970667358221220b83c8a317ad5e94b3835575ce39408b12bd2cef01e5f6e7edab8ef0b93fcafdb64736f6c634300081c0033",
  "linkReferences": {},
  "deployedLinkReferences": {}
}