{
  "_format": "hh-sol-artifact-1",
  "contractName": "StakingRewards",
  "sourceName": "contracts/StakingReward.sol",
  "abi": [
    {
      "inputs": [
        {
          "internalType": "address",
          "name": "_stakingToken",
          "type": "address"
        },
        {
          "internalType": "address",
          "name": "_rewardsToken",
          "type": "address"
        }
      ],
      "stateMutability": "nonpayable",
      "type": "constructor"
    },
    {
      "inputs": [
        {
          "internalType": "address",
          "name": "",
          "type": "address"
        }
      ],
      "name": "balanceOf",
      "outputs": [
        {
          "internalType": "uint256",
          "name": "",
          "type": "uint256"
        }
      ],
      "stateMutability": "view",
      "type": "function"
    },
    {
      "inputs": [],
      "name": "duration",
      "outputs": [
        {
          "internalType": "uint256",
          "name": "",
          "type": "uint256"
        }
      ],
      "stateMutability": "view",
      "type": "function"
    },
    {
      "inputs": [
        {
          "internalType": "address",
          "name": "_account",
          "type": "address"
        }
      ],
      "name": "earned",
      "outputs": [
        {
          "internalType": "uint256",
          "name": "",
          "type": "uint256"
        }
      ],
      "stateMutability": "view",
      "type": "function"
    },
    {
      "inputs": [],
      "name": "finishAt",
      "outputs": [
        {
          "internalType": "uint256",
          "name": "",
          "type": "uint256"
        }
      ],
      "stateMutability": "view",
      "type": "function"
    },
    {
      "inputs": [],
      "name": "getReward",
      "outputs": [],
      "stateMutability": "nonpayable",
      "type": "function"
    },
    {
      "inputs": [],
      "name": "lastTimeRewardApplicable",
      "outputs": [
        {
          "internalType": "uint256",
          "name": "",
          "type": "uint256"
        }
      ],
      "stateMutability": "view",
      "type": "function"
    },
    {
      "inputs": [
        {
          "internalType": "uint256",
          "name": "_amount",
          "type": "uint256"
        }
      ],
      "name": "notifyRewardAmount",
      "outputs": [],
      "stateMutability": "nonpayable",
      "type": "function"
    },
    {
      "inputs": [],
      "name": "owner",
      "outputs": [
        {
          "internalType": "address",
          "name": "",
          "type": "address"
        }
      ],
      "stateMutability": "view",
      "type": "function"
    },
    {
      "inputs": [],
      "name": "rewardPerToken",
      "outputs": [
        {
          "internalType": "uint256",
          "name": "",
          "type": "uint256"
        }
      ],
      "stateMutability": "view",
      "type": "function"
    },
    {
      "inputs": [],
      "name": "rewardPerTokenStored",
      "outputs": [
        {
          "internalType": "uint256",
          "name": "",
          "type": "uint256"
        }
      ],
      "stateMutability": "view",
      "type": "function"
    },
    {
      "inputs": [],
      "name": "rewardRate",
      "outputs": [
        {
          "internalType": "uint256",
          "name": "",
          "type": "uint256"
        }
      ],
      "stateMutability": "view",
      "type": "function"
    },
    {
      "inputs": [
        {
          "internalType": "address",
          "name": "",
          "type": "address"
        }
      ],
      "name": "rewards",
      "outputs": [
        {
          "internalType": "uint256",
          "name": "",
          "type": "uint256"
        }
      ],
      "stateMutability": "view",
      "type": "function"
    },
    {
      "inputs": [],
      "name": "rewardsToken",
      "outputs": [
        {
          "internalType": "contract IERC20",
          "name": "",
          "type": "address"
        }
      ],
      "stateMutability": "view",
      "type": "function"
    },
    {
      "inputs": [
        {
          "internalType": "uint256",
          "name": "_duration",
          "type": "uint256"
        }
      ],
      "name": "setRewardsDuration",
      "outputs": [],
      "stateMutability": "nonpayable",
      "type": "function"
    },
    {
      "inputs": [
        {
          "internalType": "uint256",
          "name": "_amount",
          "type": "uint256"
        }
      ],
      "name": "stake",
      "outputs": [],
      "stateMutability": "nonpayable",
      "type": "function"
    },
    {
      "inputs": [],
      "name": "stakingToken",
      "outputs": [
        {
          "internalType": "contract IERC20",
          "name": "",
          "type": "address"
        }
      ],
      "stateMutability": "view",
      "type": "function"
    },
    {
      "inputs": [],
      "name": "totalSupply",
      "outputs": [
        {
          "internalType": "uint256",
          "name": "",
          "type": "uint256"
        }
      ],
      "stateMutability": "view",
      "type": "function"
    },
    {
      "inputs": [
        {
          "internalType": "uint256",
          "name": "_amount",
          "type": "uint256"
        }
      ],
      "name": "unstake",
      "outputs": [],
      "stateMutability": "nonpayable",
      "type": "function"
    },
    {
      "inputs": [],
      "name": "updatedAt",
      "outputs": [
        {
          "internalType": "uint256",
          "name": "",
          "type": "uint256"
        }
      ],
      "stateMutability": "view",
      "type": "function"
    },
    {
      "inputs": [
        {
          "internalType": "address",
          "name": "",
          "type": "address"
        }
      ],
      "name": "userRewardPerTokenPaid",
      "outputs": [
        {
          "internalType": "uint256",
          "name": "",
          "type": "uint256"
        }
      ],
      "stateMutability": "view",
      "type": "function"
    }
  ],
  "bytecode": "0x60c060405234801561001057600080fd5b50604051611a7d380380611a7d83398181016040528101906100329190610144565b336000806101000a81548173ffffffffffffffffffffffffffffffffffffffff021916908373ffffffffffffffffffffffffffffffffffffffff1602179055508173ffffffffffffffffffffffffffffffffffffffff1660808173ffffffffffffffffffffffffffffffffffffffff16815250508073ffffffffffffffffffffffffffffffffffffffff1660a08173ffffffffffffffffffffffffffffffffffffffff16815250505050610184565b600080fd5b600073ffffffffffffffffffffffffffffffffffffffff82169050919050565b6000610111826100e6565b9050919050565b61012181610106565b811461012c57600080fd5b50565b60008151905061013e81610118565b92915050565b6000806040838503121561015b5761015a6100e1565b5b60006101698582860161012f565b925050602061017a8582860161012f565b9150509250929050565b60805160a0516118b86101c5600039600081816109b201528181610c2b01526110ee0152600081816106f401528181610ced0152610e9301526118b86000f3fe608060405234801561001057600080fd5b506004361061012b5760003560e01c80637519ab50116100ad578063a694fc3a11610071578063a694fc3a14610322578063cc1a378f1461033e578063cd3daf9d1461035a578063d1af0c7d14610378578063df136d65146103965761012b565b80637519ab501461027a5780637b0a47ee1461029857806380faa57d146102b65780638b876347146102d45780638da5cb5b146103045761012b565b80633c6b16ab116100f45780633c6b16ab146101e85780633d18b9121461020457806367d3b4881461020e57806370a082311461022c57806372f702f31461025c5761012b565b80628cc262146101305780630700037d146101605780630fb5a6b41461019057806318160ddd146101ae5780632e17de78146101cc575b600080fd5b61014a60048036038101906101459190611193565b6103b4565b60405161015791906111d9565b60405180910390f35b61017a60048036038101906101759190611193565b6104b6565b60405161018791906111d9565b60405180910390f35b6101986104ce565b6040516101a591906111d9565b60405180910390f35b6101b66104d4565b6040516101c391906111d9565b60405180910390f35b6101e660048036038101906101e19190611220565b6104da565b005b61020260048036038101906101fd9190611220565b610795565b005b61020c610ab3565b005b610216610ccd565b60405161022391906111d9565b60405180910390f35b61024660048036038101906102419190611193565b610cd3565b60405161025391906111d9565b60405180910390f35b610264610ceb565b60405161027191906112ac565b60405180910390f35b610282610d0f565b60405161028f91906111d9565b60405180910390f35b6102a0610d15565b6040516102ad91906111d9565b60405180910390f35b6102be610d1b565b6040516102cb91906111d9565b60405180910390f35b6102ee60048036038101906102e99190611193565b610d2e565b6040516102fb91906111d9565b60405180910390f35b61030c610d46565b60405161031991906112d6565b60405180910390f35b61033c60048036038101906103379190611220565b610d6a565b005b61035860048036038101906103539190611220565b610fa5565b005b610362611082565b60405161036f91906111d9565b60405180910390f35b6103806110ec565b60405161038d91906112ac565b60405180910390f35b61039e611110565b6040516103ab91906111d9565b60405180910390f35b6000600760008373ffffffffffffffffffffffffffffffffffffffff1673ffffffffffffffffffffffffffffffffffffffff16815260200190815260200160002054670de0b6b3a7640000600660008573ffffffffffffffffffffffffffffffffffffffff1673ffffffffffffffffffffffffffffffffffffffff16815260200190815260200160002054610447611082565b6104519190611320565b600960008673ffffffffffffffffffffffffffffffffffffffff1673ffffffffffffffffffffffffffffffffffffffff1681526020019081526020016000205461049b9190611354565b6104a591906113c5565b6104af91906113f6565b9050919050565b60076020528060005260406000206000915090505481565b60015481565b60085481565b336104e3611082565b6005819055506104f1610d1b565b600381905550600073ffffffffffffffffffffffffffffffffffffffff168173ffffffffffffffffffffffffffffffffffffffff16146105be57610534816103b4565b600760008373ffffffffffffffffffffffffffffffffffffffff1673ffffffffffffffffffffffffffffffffffffffff16815260200190815260200160002081905550600554600660008373ffffffffffffffffffffffffffffffffffffffff1673ffffffffffffffffffffffffffffffffffffffff168152602001908152602001600020819055505b60008211610601576040517f08c379a00000000000000000000000000000000000000000000000000000000081526004016105f890611487565b60405180910390fd5b81600960003373ffffffffffffffffffffffffffffffffffffffff1673ffffffffffffffffffffffffffffffffffffffff168152602001908152602001600020541015610683576040517f08c379a000000000000000000000000000000000000000000000000000000000815260040161067a906114f3565b60405180910390fd5b81600860008282546106959190611320565b9250508190555081600960003373ffffffffffffffffffffffffffffffffffffffff1673ffffffffffffffffffffffffffffffffffffffff16815260200190815260200160002060008282546106eb9190611320565b925050819055507f000000000000000000000000000000000000000000000000000000000000000073ffffffffffffffffffffffffffffffffffffffff1663a9059cbb33846040518363ffffffff1660e01b815260040161074d929190611513565b6020604051808303816000875af115801561076c573d6000803e3d6000fd5b505050506040513d601f19601f820116820180604052508101906107909190611574565b505050565b60008054906101000a900473ffffffffffffffffffffffffffffffffffffffff1673ffffffffffffffffffffffffffffffffffffffff163373ffffffffffffffffffffffffffffffffffffffff1614610823576040517f08c379a000000000000000000000000000000000000000000000000000000000815260040161081a906115ed565b60405180910390fd5b600061082d611082565b60058190555061083b610d1b565b600381905550600073ffffffffffffffffffffffffffffffffffffffff168173ffffffffffffffffffffffffffffffffffffffff16146109085761087e816103b4565b600760008373ffffffffffffffffffffffffffffffffffffffff1673ffffffffffffffffffffffffffffffffffffffff16815260200190815260200160002081905550600554600660008373ffffffffffffffffffffffffffffffffffffffff1673ffffffffffffffffffffffffffffffffffffffff168152602001908152602001600020819055505b60025442111561092b576001548261092091906113c5565b60048190555061096b565b60004260025461093b9190611320565b6004546109489190611354565b9050600154838261095991906113f6565b61096391906113c5565b600481905550505b6000600454116109b0576040517f08c379a00000000000000000000000000000000000000000000000000000000081526004016109a790611659565b60405180910390fd5b7f000000000000000000000000000000000000000000000000000000000000000073ffffffffffffffffffffffffffffffffffffffff166370a08231306040518263ffffffff1660e01b8152600401610a0991906112d6565b602060405180830381865afa158015610a26573d6000803e3d6000fd5b505050506040513d601f19601f82011682018060405250810190610a4a919061168e565b600154600454610a5a9190611354565b1115610a9b576040517f08c379a0000000000000000000000000000000000000000000000000000000008152600401610a9290611707565b60405180910390fd5b60015442610aa991906113f6565b6002819055505050565b33610abc611082565b600581905550610aca610d1b565b600381905550600073ffffffffffffffffffffffffffffffffffffffff168173ffffffffffffffffffffffffffffffffffffffff1614610b9757610b0d816103b4565b600760008373ffffffffffffffffffffffffffffffffffffffff1673ffffffffffffffffffffffffffffffffffffffff16815260200190815260200160002081905550600554600660008373ffffffffffffffffffffffffffffffffffffffff1673ffffffffffffffffffffffffffffffffffffffff168152602001908152602001600020819055505b6000600760003373ffffffffffffffffffffffffffffffffffffffff1673ffffffffffffffffffffffffffffffffffffffff1681526020019081526020016000205490506000811115610cc9576000600760003373ffffffffffffffffffffffffffffffffffffffff1673ffffffffffffffffffffffffffffffffffffffff168152602001908152602001600020819055507f000000000000000000000000000000000000000000000000000000000000000073ffffffffffffffffffffffffffffffffffffffff1663a9059cbb33836040518363ffffffff1660e01b8152600401610c84929190611513565b6020604051808303816000875af1158015610ca3573d6000803e3d6000fd5b505050506040513d601f19601f82011682018060405250810190610cc79190611574565b505b5050565b60025481565b60096020528060005260406000206000915090505481565b7f000000000000000000000000000000000000000000000000000000000000000081565b60035481565b60045481565b6000610d2942600254611116565b905090565b60066020528060005260406000206000915090505481565b60008054906101000a900473ffffffffffffffffffffffffffffffffffffffff1681565b33610d73611082565b600581905550610d81610d1b565b600381905550600073ffffffffffffffffffffffffffffffffffffffff168173ffffffffffffffffffffffffffffffffffffffff1614610e4e57610dc4816103b4565b600760008373ffffffffffffffffffffffffffffffffffffffff1673ffffffffffffffffffffffffffffffffffffffff16815260200190815260200160002081905550600554600660008373ffffffffffffffffffffffffffffffffffffffff1673ffffffffffffffffffffffffffffffffffffffff168152602001908152602001600020819055505b60008211610e91576040517f08c379a0000000000000000000000000000000000000000000000000000000008152600401610e8890611773565b60405180910390fd5b7f000000000000000000000000000000000000000000000000000000000000000073ffffffffffffffffffffffffffffffffffffffff166323b872dd3330856040518463ffffffff1660e01b8152600401610eee93929190611793565b6020604051808303816000875af1158015610f0d573d6000803e3d6000fd5b505050506040513d601f19601f82011682018060405250810190610f319190611574565b5081600960003373ffffffffffffffffffffffffffffffffffffffff1673ffffffffffffffffffffffffffffffffffffffff1681526020019081526020016000206000828254610f8191906113f6565b925050819055508160086000828254610f9a91906113f6565b925050819055505050565b60008054906101000a900473ffffffffffffffffffffffffffffffffffffffff1673ffffffffffffffffffffffffffffffffffffffff163373ffffffffffffffffffffffffffffffffffffffff1614611033576040517f08c379a000000000000000000000000000000000000000000000000000000000815260040161102a906115ed565b60405180910390fd5b600254421015611078576040517f08c379a000000000000000000000000000000000000000000000000000000000815260040161106f90611862565b60405180910390fd5b8060018190555050565b600080600854036110975760055490506110e9565b600854670de0b6b3a76400006003546110ae610d1b565b6110b89190611320565b6004546110c59190611354565b6110cf9190611354565b6110d991906113c5565b6005546110e691906113f6565b90505b90565b7f000000000000000000000000000000000000000000000000000000000000000081565b60055481565b6000818311156111265781611128565b825b905092915050565b600080fd5b600073ffffffffffffffffffffffffffffffffffffffff82169050919050565b600061116082611135565b9050919050565b61117081611155565b811461117b57600080fd5b50565b60008135905061118d81611167565b92915050565b6000602082840312156111a9576111a8611130565b5b60006111b78482850161117e565b91505092915050565b6000819050919050565b6111d3816111c0565b82525050565b60006020820190506111ee60008301846111ca565b92915050565b6111fd816111c0565b811461120857600080fd5b50565b60008135905061121a816111f4565b92915050565b60006020828403121561123657611235611130565b5b60006112448482850161120b565b91505092915050565b6000819050919050565b600061127261126d61126884611135565b61124d565b611135565b9050919050565b600061128482611257565b9050919050565b600061129682611279565b9050919050565b6112a68161128b565b82525050565b60006020820190506112c1600083018461129d565b92915050565b6112d081611155565b82525050565b60006020820190506112eb60008301846112c7565b92915050565b7f4e487b7100000000000000000000000000000000000000000000000000000000600052601160045260246000fd5b600061132b826111c0565b9150611336836111c0565b925082820390508181111561134e5761134d6112f1565b5b92915050565b600061135f826111c0565b915061136a836111c0565b9250828202611378816111c0565b9150828204841483151761138f5761138e6112f1565b5b5092915050565b7f4e487b7100000000000000000000000000000000000000000000000000000000600052601260045260246000fd5b60006113d0826111c0565b91506113db836111c0565b9250826113eb576113ea611396565b5b828204905092915050565b6000611401826111c0565b915061140c836111c0565b9250828201905080821115611424576114236112f1565b5b92915050565b600082825260208201905092915050565b7f43616e6e6f7420756e7374616b65203000000000000000000000000000000000600082015250565b600061147160108361142a565b915061147c8261143b565b602082019050919050565b600060208201905081810360008301526114a081611464565b9050919050565b7f496e73756666696369656e74207374616b65642062616c616e63650000000000600082015250565b60006114dd601b8361142a565b91506114e8826114a7565b602082019050919050565b6000602082019050818103600083015261150c816114d0565b9050919050565b600060408201905061152860008301856112c7565b61153560208301846111ca565b9392505050565b60008115159050919050565b6115518161153c565b811461155c57600080fd5b50565b60008151905061156e81611548565b92915050565b60006020828403121561158a57611589611130565b5b60006115988482850161155f565b91505092915050565b7f6e6f74206f776e65720000000000000000000000000000000000000000000000600082015250565b60006115d760098361142a565b91506115e2826115a1565b602082019050919050565b60006020820190508181036000830152611606816115ca565b9050919050565b7f7265776172642072617465203d20300000000000000000000000000000000000600082015250565b6000611643600f8361142a565b915061164e8261160d565b602082019050919050565b6000602082019050818103600083015261167281611636565b9050919050565b600081519050611688816111f4565b92915050565b6000602082840312156116a4576116a3611130565b5b60006116b284828501611679565b91505092915050565b7f72657761726420616d6f756e74203e2062616c616e6365000000000000000000600082015250565b60006116f160178361142a565b91506116fc826116bb565b602082019050919050565b60006020820190508181036000830152611720816116e4565b9050919050565b7f616d6f756e74203d203000000000000000000000000000000000000000000000600082015250565b600061175d600a8361142a565b915061176882611727565b602082019050919050565b6000602082019050818103600083015261178c81611750565b9050919050565b60006060820190506117a860008301866112c7565b6117b560208301856112c7565b6117c260408301846111ca565b949350505050565b7f50726576696f7573207265776172647320706572696f64206d7573742062652060008201527f636f6d706c657465206265666f7265206368616e67696e67206475726174696f60208201527f6e00000000000000000000000000000000000000000000000000000000000000604082015250565b600061184c60418361142a565b9150611857826117ca565b606082019050919050565b6000602082019050818103600083015261187b8161183f565b905091905056fea264697066735822122028b822f30e45562348a33eb131cb5c444dd5f962b3e7c64e9a575b583b557d2264736f6c634300081c0033",
  "linkReferences": {},
  "deployedLinkReferences": {}
}