{
  "_format": "hh-sol-artifact-1",
  "contractName": "StakingRewards",
  "sourceName": "contracts/StakingReward.sol",
  "abi": [
    {
      "inputs": [
        {
          "internalType": "address",
          "name": "_stakingToken",
          "type": "address"
        },
        {
          "internalType": "address",
          "name": "_rewardsToken",
          "type": "address"
        }
      ],
      "stateMutability": "nonpayable",
      "type": "constructor"
    },
    {
      "inputs": [
        {
          "internalType": "address",
          "name": "",
          "type": "address"
        }
      ],
      "name": "balanceOf",
      "outputs": [
        {
          "internalType": "uint256",
          "name": "",
          "type": "uint256"
        }
      ],
      "stateMutability": "view",
      "type": "function"
    },
    {
      "inputs": [],
      "name": "duration",
      "outputs": [
        {
          "internalType": "uint256",
          "name": "",
          "type": "uint256"
        }
      ],
      "stateMutability": "view",
      "type": "function"
    },
    {
      "inputs": [
        {
          "internalType": "address",
          "name": "_account",
          "type": "address"
        }
      ],
      "name": "earned",
      "outputs": [
        {
          "internalType": "uint256",
          "name": "",
          "type": "uint256"
        }
      ],
      "stateMutability": "view",
      "type": "function"
    },
    {
      "inputs": [],
      "name": "finishAt",
      "outputs": [
        {
          "internalType": "uint256",
          "name": "",
          "type": "uint256"
        }
      ],
      "stateMutability": "view",
      "type": "function"
    },
    {
      "inputs": [],
      "name": "getReward",
      "outputs": [],
      "stateMutability": "nonpayable",
      "type": "function"
    },
    {
      "inputs": [],
      "name": "lastTimeRewardApplicable",
      "outputs": [
        {
          "internalType": "uint256",
          "name": "",
          "type": "uint256"
        }
      ],
      "stateMutability": "view",
      "type": "function"
    },
    {
      "inputs": [
        {
          "internalType": "uint256",
          "name": "_amount",
          "type": "uint256"
        }
      ],
      "name": "notifyRewardAmount",
      "outputs": [],
      "stateMutability": "nonpayable",
      "type": "function"
    },
    {
      "inputs": [],
      "name": "owner",
      "outputs": [
        {
          "internalType": "address",
          "name": "",
          "type": "address"
        }
      ],
      "stateMutability": "view",
      "type": "function"
    },
    {
      "inputs": [],
      "name": "rewardPerToken",
      "outputs": [
        {
          "internalType": "uint256",
          "name": "",
          "type": "uint256"
        }
      ],
      "stateMutability": "view",
      "type": "function"
    },
    {
      "inputs": [],
      "name": "rewardPerTokenStored",
      "outputs": [
        {
          "internalType": "uint256",
          "name": "",
          "type": "uint256"
        }
      ],
      "stateMutability": "view",
      "type": "function"
    },
    {
      "inputs": [],
      "name": "rewardRate",
      "outputs": [
        {
          "internalType": "uint256",
          "name": "",
          "type": "uint256"
        }
      ],
      "stateMutability": "view",
      "type": "function"
    },
    {
      "inputs": [
        {
          "internalType": "address",
          "name": "",
          "type": "address"
        }
      ],
      "name": "rewards",
      "outputs": [
        {
          "internalType": "uint256",
          "name": "",
          "type": "uint256"
        }
      ],
      "stateMutability": "view",
      "type": "function"
    },
    {
      "inputs": [],
      "name": "rewardsToken",
      "outputs": [
        {
          "internalType": "contract IERC20",
          "name": "",
          "type": "address"
        }
      ],
      "stateMutability": "view",
      "type": "function"
    },
    {
      "inputs": [
        {
          "internalType": "uint256",
          "name": "_duration",
          "type": "uint256"
        }
      ],
      "name": "setRewardsDuration",
      "outputs": [],
      "stateMutability": "nonpayable",
      "type": "function"
    },
    {
      "inputs": [
        {
          "internalType": "uint256",
          "name": "_amount",
          "type": "uint256"
        }
      ],
      "name": "stake",
      "outputs": [],
      "stateMutability": "nonpayable",
      "type": "function"
    },
    {
      "inputs": [],
      "name": "stakingToken",
      "outputs": [
        {
          "internalType": "contract IERC20",
          "name": "",
          "type": "address"
        }
      ],
      "stateMutability": "view",
      "type": "function"
    },
    {
      "inputs": [],
      "name": "totalSupply",
      "outputs": [
        {
          "internalType": "uint256",
          "name": "",
          "type": "uint256"
        }
      ],
      "stateMutability": "view",
      "type": "function"
    },
    {
      "inputs": [
        {
          "internalType": "uint256",
          "name": "amount",
          "type": "uint256"
        }
      ],
      "name": "unstake",
      "outputs": [],
      "stateMutability": "nonpayable",
      "type": "function"
    },
    {
      "inputs": [],
      "name": "updatedAt",
      "outputs": [
        {
          "internalType": "uint256",
          "name": "",
          "type": "uint256"
        }
      ],
      "stateMutability": "view",
      "type": "function"
    },
    {
      "inputs": [
        {
          "internalType": "address",
          "name": "",
          "type": "address"
        }
      ],
      "name": "userRewardPerTokenPaid",
      "outputs": [
        {
          "internalType": "uint256",
          "name": "",
          "type": "uint256"
        }
      ],
      "stateMutability": "view",
      "type": "function"
    },
    {
      "inputs": [
        {
          "internalType": "uint256",
          "name": "_amount",
          "type": "uint256"
        }
      ],
      "name": "withdraw",
      "outputs": [],
      "stateMutability": "nonpayable",
      "type": "function"
    }
  ],
  "bytecode": "0x60c060405234801561001057600080fd5b50604051611c9e380380611c9e83398181016040528101906100329190610144565b336000806101000a81548173ffffffffffffffffffffffffffffffffffffffff021916908373ffffffffffffffffffffffffffffffffffffffff1602179055508173ffffffffffffffffffffffffffffffffffffffff1660808173ffffffffffffffffffffffffffffffffffffffff16815250508073ffffffffffffffffffffffffffffffffffffffff1660a08173ffffffffffffffffffffffffffffffffffffffff16815250505050610184565b600080fd5b600073ffffffffffffffffffffffffffffffffffffffff82169050919050565b6000610111826100e6565b9050919050565b61012181610106565b811461012c57600080fd5b50565b60008151905061013e81610118565b92915050565b6000806040838503121561015b5761015a6100e1565b5b60006101698582860161012f565b925050602061017a8582860161012f565b9150509250929050565b60805160a051611ad26101cc60003960008181610c1201528181610e92015261135401526000818161071b0152818161095401528181610f5401526110fa0152611ad26000f3fe608060405234801561001057600080fd5b50600436106101365760003560e01c806372f702f3116100b85780638da5cb5b1161007c5780638da5cb5b1461032b578063a694fc3a14610349578063cc1a378f14610365578063cd3daf9d14610381578063d1af0c7d1461039f578063df136d65146103bd57610136565b806372f702f3146102835780637519ab50146102a15780637b0a47ee146102bf57806380faa57d146102dd5780638b876347146102fb57610136565b80632e1a7d4d116100ff5780632e1a7d4d146101f35780633c6b16ab1461020f5780633d18b9121461022b57806367d3b4881461023557806370a082311461025357610136565b80628cc2621461013b5780630700037d1461016b5780630fb5a6b41461019b57806318160ddd146101b95780632e17de78146101d7575b600080fd5b610155600480360381019061015091906113f9565b6103db565b604051610162919061143f565b60405180910390f35b610185600480360381019061018091906113f9565b6104dd565b604051610192919061143f565b60405180910390f35b6101a36104f5565b6040516101b0919061143f565b60405180910390f35b6101c16104fb565b6040516101ce919061143f565b60405180910390f35b6101f160048036038101906101ec9190611486565b610501565b005b61020d60048036038101906102089190611486565b6107bc565b005b61022960048036038101906102249190611486565b6109f5565b005b610233610d1a565b005b61023d610f34565b60405161024a919061143f565b60405180910390f35b61026d600480360381019061026891906113f9565b610f3a565b60405161027a919061143f565b60405180910390f35b61028b610f52565b6040516102989190611512565b60405180910390f35b6102a9610f76565b6040516102b6919061143f565b60405180910390f35b6102c7610f7c565b6040516102d4919061143f565b60405180910390f35b6102e5610f82565b6040516102f2919061143f565b60405180910390f35b610315600480360381019061031091906113f9565b610f95565b604051610322919061143f565b60405180910390f35b610333610fad565b604051610340919061153c565b60405180910390f35b610363600480360381019061035e9190611486565b610fd1565b005b61037f600480360381019061037a9190611486565b61120c565b005b6103896112e8565b604051610396919061143f565b60405180910390f35b6103a7611352565b6040516103b49190611512565b60405180910390f35b6103c5611376565b6040516103d2919061143f565b60405180910390f35b6000600760008373ffffffffffffffffffffffffffffffffffffffff1673ffffffffffffffffffffffffffffffffffffffff16815260200190815260200160002054670de0b6b3a7640000600660008573ffffffffffffffffffffffffffffffffffffffff1673ffffffffffffffffffffffffffffffffffffffff1681526020019081526020016000205461046e6112e8565b6104789190611586565b600960008673ffffffffffffffffffffffffffffffffffffffff1673ffffffffffffffffffffffffffffffffffffffff168152602001908152602001600020546104c291906115ba565b6104cc919061162b565b6104d6919061165c565b9050919050565b60076020528060005260406000206000915090505481565b60015481565b60085481565b3361050a6112e8565b600581905550610518610f82565b600381905550600073ffffffffffffffffffffffffffffffffffffffff168173ffffffffffffffffffffffffffffffffffffffff16146105e55761055b816103db565b600760008373ffffffffffffffffffffffffffffffffffffffff1673ffffffffffffffffffffffffffffffffffffffff16815260200190815260200160002081905550600554600660008373ffffffffffffffffffffffffffffffffffffffff1673ffffffffffffffffffffffffffffffffffffffff168152602001908152602001600020819055505b60008211610628576040517f08c379a000000000000000000000000000000000000000000000000000000000815260040161061f906116ed565b60405180910390fd5b81600960003373ffffffffffffffffffffffffffffffffffffffff1673ffffffffffffffffffffffffffffffffffffffff1681526020019081526020016000205410156106aa576040517f08c379a00000000000000000000000000000000000000000000000000000000081526004016106a190611759565b60405180910390fd5b81600860008282546106bc9190611586565b9250508190555081600960003373ffffffffffffffffffffffffffffffffffffffff1673ffffffffffffffffffffffffffffffffffffffff16815260200190815260200160002060008282546107129190611586565b925050819055507f000000000000000000000000000000000000000000000000000000000000000073ffffffffffffffffffffffffffffffffffffffff1663a9059cbb33846040518363ffffffff1660e01b8152600401610774929190611779565b6020604051808303816000875af1158015610793573d6000803e3d6000fd5b505050506040513d601f19601f820116820180604052508101906107b791906117da565b505050565b336107c56112e8565b6005819055506107d3610f82565b600381905550600073ffffffffffffffffffffffffffffffffffffffff168173ffffffffffffffffffffffffffffffffffffffff16146108a057610816816103db565b600760008373ffffffffffffffffffffffffffffffffffffffff1673ffffffffffffffffffffffffffffffffffffffff16815260200190815260200160002081905550600554600660008373ffffffffffffffffffffffffffffffffffffffff1673ffffffffffffffffffffffffffffffffffffffff168152602001908152602001600020819055505b600082116108e3576040517f08c379a00000000000000000000000000000000000000000000000000000000081526004016108da90611853565b60405180910390fd5b81600960003373ffffffffffffffffffffffffffffffffffffffff1673ffffffffffffffffffffffffffffffffffffffff16815260200190815260200160002060008282546109329190611586565b92505081905550816008600082825461094b9190611586565b925050819055507f000000000000000000000000000000000000000000000000000000000000000073ffffffffffffffffffffffffffffffffffffffff1663a9059cbb33846040518363ffffffff1660e01b81526004016109ad929190611779565b6020604051808303816000875af11580156109cc573d6000803e3d6000fd5b505050506040513d601f19601f820116820180604052508101906109f091906117da565b505050565b60008054906101000a900473ffffffffffffffffffffffffffffffffffffffff1673ffffffffffffffffffffffffffffffffffffffff163373ffffffffffffffffffffffffffffffffffffffff1614610a83576040517f08c379a0000000000000000000000000000000000000000000000000000000008152600401610a7a906118bf565b60405180910390fd5b6000610a8d6112e8565b600581905550610a9b610f82565b600381905550600073ffffffffffffffffffffffffffffffffffffffff168173ffffffffffffffffffffffffffffffffffffffff1614610b6857610ade816103db565b600760008373ffffffffffffffffffffffffffffffffffffffff1673ffffffffffffffffffffffffffffffffffffffff16815260200190815260200160002081905550600554600660008373ffffffffffffffffffffffffffffffffffffffff1673ffffffffffffffffffffffffffffffffffffffff168152602001908152602001600020819055505b600254421115610b8b5760015482610b80919061162b565b600481905550610bcb565b600042600254610b9b9190611586565b600454610ba891906115ba565b90506001548382610bb9919061165c565b610bc3919061162b565b600481905550505b600060045411610c10576040517f08c379a0000000000000000000000000000000000000000000000000000000008152600401610c079061192b565b60405180910390fd5b7f000000000000000000000000000000000000000000000000000000000000000073ffffffffffffffffffffffffffffffffffffffff166370a08231306040518263ffffffff1660e01b8152600401610c69919061153c565b602060405180830381865afa158015610c86573d6000803e3d6000fd5b505050506040513d601f19601f82011682018060405250810190610caa9190611960565b600154600454610cba91906115ba565b1115610cfb576040517f08c379a0000000000000000000000000000000000000000000000000000000008152600401610cf2906119d9565b60405180910390fd5b60015442610d09919061165c565b600281905550426003819055505050565b33610d236112e8565b600581905550610d31610f82565b600381905550600073ffffffffffffffffffffffffffffffffffffffff168173ffffffffffffffffffffffffffffffffffffffff1614610dfe57610d74816103db565b600760008373ffffffffffffffffffffffffffffffffffffffff1673ffffffffffffffffffffffffffffffffffffffff16815260200190815260200160002081905550600554600660008373ffffffffffffffffffffffffffffffffffffffff1673ffffffffffffffffffffffffffffffffffffffff168152602001908152602001600020819055505b6000600760003373ffffffffffffffffffffffffffffffffffffffff1673ffffffffffffffffffffffffffffffffffffffff1681526020019081526020016000205490506000811115610f30576000600760003373ffffffffffffffffffffffffffffffffffffffff1673ffffffffffffffffffffffffffffffffffffffff168152602001908152602001600020819055507f000000000000000000000000000000000000000000000000000000000000000073ffffffffffffffffffffffffffffffffffffffff1663a9059cbb33836040518363ffffffff1660e01b8152600401610eeb929190611779565b6020604051808303816000875af1158015610f0a573d6000803e3d6000fd5b505050506040513d601f19601f82011682018060405250810190610f2e91906117da565b505b5050565b60025481565b60096020528060005260406000206000915090505481565b7f000000000000000000000000000000000000000000000000000000000000000081565b60035481565b60045481565b6000610f904260025461137c565b905090565b60066020528060005260406000206000915090505481565b60008054906101000a900473ffffffffffffffffffffffffffffffffffffffff1681565b33610fda6112e8565b600581905550610fe8610f82565b600381905550600073ffffffffffffffffffffffffffffffffffffffff168173ffffffffffffffffffffffffffffffffffffffff16146110b55761102b816103db565b600760008373ffffffffffffffffffffffffffffffffffffffff1673ffffffffffffffffffffffffffffffffffffffff16815260200190815260200160002081905550600554600660008373ffffffffffffffffffffffffffffffffffffffff1673ffffffffffffffffffffffffffffffffffffffff168152602001908152602001600020819055505b600082116110f8576040517f08c379a00000000000000000000000000000000000000000000000000000000081526004016110ef90611853565b60405180910390fd5b7f000000000000000000000000000000000000000000000000000000000000000073ffffffffffffffffffffffffffffffffffffffff166323b872dd3330856040518463ffffffff1660e01b8152600401611155939291906119f9565b6020604051808303816000875af1158015611174573d6000803e3d6000fd5b505050506040513d601f19601f8201168201806040525081019061119891906117da565b5081600960003373ffffffffffffffffffffffffffffffffffffffff1673ffffffffffffffffffffffffffffffffffffffff16815260200190815260200160002060008282546111e8919061165c565b925050819055508160086000828254611201919061165c565b925050819055505050565b60008054906101000a900473ffffffffffffffffffffffffffffffffffffffff1673ffffffffffffffffffffffffffffffffffffffff163373ffffffffffffffffffffffffffffffffffffffff161461129a576040517f08c379a0000000000000000000000000000000000000000000000000000000008152600401611291906118bf565b60405180910390fd5b42600254106112de576040517f08c379a00000000000000000000000000000000000000000000000000000000081526004016112d590611a7c565b60405180910390fd5b8060018190555050565b600080600854036112fd57600554905061134f565b600854670de0b6b3a7640000600354611314610f82565b61131e9190611586565b60045461132b91906115ba565b61133591906115ba565b61133f919061162b565b60055461134c919061165c565b90505b90565b7f000000000000000000000000000000000000000000000000000000000000000081565b60055481565b60008183111561138c578161138e565b825b905092915050565b600080fd5b600073ffffffffffffffffffffffffffffffffffffffff82169050919050565b60006113c68261139b565b9050919050565b6113d6816113bb565b81146113e157600080fd5b50565b6000813590506113f3816113cd565b92915050565b60006020828403121561140f5761140e611396565b5b600061141d848285016113e4565b91505092915050565b6000819050919050565b61143981611426565b82525050565b60006020820190506114546000830184611430565b92915050565b61146381611426565b811461146e57600080fd5b50565b6000813590506114808161145a565b92915050565b60006020828403121561149c5761149b611396565b5b60006114aa84828501611471565b91505092915050565b6000819050919050565b60006114d86114d36114ce8461139b565b6114b3565b61139b565b9050919050565b60006114ea826114bd565b9050919050565b60006114fc826114df565b9050919050565b61150c816114f1565b82525050565b60006020820190506115276000830184611503565b92915050565b611536816113bb565b82525050565b6000602082019050611551600083018461152d565b92915050565b7f4e487b7100000000000000000000000000000000000000000000000000000000600052601160045260246000fd5b600061159182611426565b915061159c83611426565b92508282039050818111156115b4576115b3611557565b5b92915050565b60006115c582611426565b91506115d083611426565b92508282026115de81611426565b915082820484148315176115f5576115f4611557565b5b5092915050565b7f4e487b7100000000000000000000000000000000000000000000000000000000600052601260045260246000fd5b600061163682611426565b915061164183611426565b925082611651576116506115fc565b5b828204905092915050565b600061166782611426565b915061167283611426565b925082820190508082111561168a57611689611557565b5b92915050565b600082825260208201905092915050565b7f43616e6e6f7420756e7374616b65203000000000000000000000000000000000600082015250565b60006116d7601083611690565b91506116e2826116a1565b602082019050919050565b60006020820190508181036000830152611706816116ca565b9050919050565b7f496e73756666696369656e74207374616b65642062616c616e63650000000000600082015250565b6000611743601b83611690565b915061174e8261170d565b602082019050919050565b6000602082019050818103600083015261177281611736565b9050919050565b600060408201905061178e600083018561152d565b61179b6020830184611430565b9392505050565b60008115159050919050565b6117b7816117a2565b81146117c257600080fd5b50565b6000815190506117d4816117ae565b92915050565b6000602082840312156117f0576117ef611396565b5b60006117fe848285016117c5565b91505092915050565b7f616d6f756e74203d203000000000000000000000000000000000000000000000600082015250565b600061183d600a83611690565b915061184882611807565b602082019050919050565b6000602082019050818103600083015261186c81611830565b9050919050565b7f6e6f74206f776e65720000000000000000000000000000000000000000000000600082015250565b60006118a9600983611690565b91506118b482611873565b602082019050919050565b600060208201905081810360008301526118d88161189c565b9050919050565b7f7265776172642072617465203d20300000000000000000000000000000000000600082015250565b6000611915600f83611690565b9150611920826118df565b602082019050919050565b6000602082019050818103600083015261194481611908565b9050919050565b60008151905061195a8161145a565b92915050565b60006020828403121561197657611975611396565b5b60006119848482850161194b565b91505092915050565b7f72657761726420616d6f756e74203e2062616c616e6365000000000000000000600082015250565b60006119c3601783611690565b91506119ce8261198d565b602082019050919050565b600060208201905081810360008301526119f2816119b6565b9050919050565b6000606082019050611a0e600083018661152d565b611a1b602083018561152d565b611a286040830184611430565b949350505050565b7f726577617264206475726174696f6e206e6f742066696e697368656400000000600082015250565b6000611a66601c83611690565b9150611a7182611a30565b602082019050919050565b60006020820190508181036000830152611a9581611a59565b905091905056fea26469706673582212207202589d8b630534f09c320a41158dea38115c6acb9c4331ef5436322954f10464736f6c634300081c0033",
  "linkReferences": {},
  "deployedLinkReferences": {}
}