{
  "_format": "hh-sol-artifact-1",
  "contractName": "Token2",
  "sourceName": "contracts/Token2.sol",
  "abi": [
    {
      "inputs": [
        {
          "internalType": "uint256",
          "name": "initialSupply",
          "type": "uint256"
        }
      ],
      "stateMutability": "nonpayable",
      "type": "constructor"
    },
    {
      "anonymous": false,
      "inputs": [
        {
          "indexed": true,
          "internalType": "address",
          "name": "owner",
          "type": "address"
        },
        {
          "indexed": true,
          "internalType": "address",
          "name": "spender",
          "type": "address"
        },
        {
          "indexed": false,
          "internalType": "uint256",
          "name": "value",
          "type": "uint256"
        }
      ],
      "name": "Approval",
      "type": "event"
    },
    {
      "anonymous": false,
      "inputs": [
        {
          "indexed": true,
          "internalType": "address",
          "name": "from",
          "type": "address"
        },
        {
          "indexed": true,
          "internalType": "address",
          "name": "to",
          "type": "address"
        },
        {
          "indexed": false,
          "internalType": "uint256",
          "name": "value",
          "type": "uint256"
        }
      ],
      "name": "Transfer",
      "type": "event"
    },
    {
      "inputs": [
        {
          "internalType": "address",
          "name": "owner",
          "type": "address"
        },
        {
          "internalType": "address",
          "name": "spender",
          "type": "address"
        }
      ],
      "name": "allowance",
      "outputs": [
        {
          "internalType": "uint256",
          "name": "",
          "type": "uint256"
        }
      ],
      "stateMutability": "view",
      "type": "function"
    },
    {
      "inputs": [
        {
          "internalType": "address",
          "name": "spender",
          "type": "address"
        },
        {
          "internalType": "uint256",
          "name": "amount",
          "type": "uint256"
        }
      ],
      "name": "approve",
      "outputs": [
        {
          "internalType": "bool",
          "name": "",
          "type": "bool"
        }
      ],
      "stateMutability": "nonpayable",
      "type": "function"
    },
    {
      "inputs": [
        {
          "internalType": "address",
          "name": "account",
          "type": "address"
        }
      ],
      "name": "balanceOf",
      "outputs": [
        {
          "internalType": "uint256",
          "name": "",
          "type": "uint256"
        }
      ],
      "stateMutability": "view",
      "type": "function"
    },
    {
      "inputs": [],
      "name": "decimals",
      "outputs": [
        {
          "internalType": "uint8",
          "name": "",
          "type": "uint8"
        }
      ],
      "stateMutability": "view",
      "type": "function"
    },
    {
      "inputs": [
        {
          "internalType": "address",
          "name": "spender",
          "type": "address"
        },
        {
          "internalType": "uint256",
          "name": "subtractedValue",
          "type": "uint256"
        }
      ],
      "name": "decreaseAllowance",
      "outputs": [
        {
          "internalType": "bool",
          "name": "",
          "type": "bool"
        }
      ],
      "stateMutability": "nonpayable",
      "type": "function"
    },
    {
      "inputs": [
        {
          "internalType": "address",
          "name": "spender",
          "type": "address"
        },
        {
          "internalType": "uint256",
          "name": "addedValue",
          "type": "uint256"
        }
      ],
      "name": "increaseAllowance",
      "outputs": [
        {
          "internalType": "bool",
          "name": "",
          "type": "bool"
        }
      ],
      "stateMutability": "nonpayable",
      "type": "function"
    },
    {
      "inputs": [
        {
          "internalType": "address",
          "name": "to",
          "type": "address"
        },
        {
          "internalType": "uint256",
          "name": "amount",
          "type": "uint256"
        }
      ],
      "name": "mint",
      "outputs": [],
      "stateMutability": "nonpayable",
      "type": "function"
    },
    {
      "inputs": [],
      "name": "name",
      "outputs": [
        {
          "internalType": "string",
          "name": "",
          "type": "string"
        }
      ],
      "stateMutability": "view",
      "type": "function"
    },
    {
      "inputs": [],
      "name": "owner",
      "outputs": [
        {
          "internalType": "address",
          "name": "",
          "type": "address"
        }
      ],
      "stateMutability": "view",
      "type": "function"
    },
    {
      "inputs": [
        {
          "internalType": "address",
          "name": "token",
          "type": "address"
        },
        {
          "internalType": "uint256",
          "name": "amount",
          "type": "uint256"
        }
      ],
      "name": "recoverERC20",
      "outputs": [],
      "stateMutability": "nonpayable",
      "type": "function"
    },
    {
      "inputs": [],
      "name": "symbol",
      "outputs": [
        {
          "internalType": "string",
          "name": "",
          "type": "string"
        }
      ],
      "stateMutability": "view",
      "type": "function"
    },
    {
      "inputs": [],
      "name": "totalSupply",
      "outputs": [
        {
          "internalType": "uint256",
          "name": "",
          "type": "uint256"
        }
      ],
      "stateMutability": "view",
      "type": "function"
    },
    {
      "inputs": [
        {
          "internalType": "address",
          "name": "to",
          "type": "address"
        },
        {
          "internalType": "uint256",
          "name": "amount",
          "type": "uint256"
        }
      ],
      "name": "transfer",
      "outputs": [
        {
          "internalType": "bool",
          "name": "",
          "type": "bool"
        }
      ],
      "stateMutability": "nonpayable",
      "type": "function"
    },
    {
      "inputs": [
        {
          "internalType": "address",
          "name": "from",
          "type": "address"
        },
        {
          "internalType": "address",
          "name": "to",
          "type": "address"
        },
        {
          "internalType": "uint256",
          "name": "amount",
          "type": "uint256"
        }
      ],
      "name": "transferFrom",
      "outputs": [
        {
          "internalType": "bool",
          "name": "",
          "type": "bool"
        }
      ],
      "stateMutability": "nonpayable",
      "type": "function"
    }
  ],
  "bytecode": "0x60a060405234801561001057600080fd5b50604051611ec1380380611ec1833981810160405281019061003291906102b1565b6040518060400160405280600c81526020017f52657761726420546f6b656e00000000000000000000000000000000000000008152506040518060400160405280600681526020017f524557415244000000000000000000000000000000000000000000000000000081525081600390816100ad9190610524565b5080600490816100bd9190610524565b5050503373ffffffffffffffffffffffffffffffffffffffff1660808173ffffffffffffffffffffffffffffffffffffffff1681525050610104338261010a60201b60201c565b50610700565b600073ffffffffffffffffffffffffffffffffffffffff168273ffffffffffffffffffffffffffffffffffffffff1603610179576040517f08c379a000000000000000000000000000000000000000000000000000000000815260040161017090610653565b60405180910390fd5b61018b6000838361026c60201b60201c565b806002600082825461019d91906106a2565b92505081905550806000808473ffffffffffffffffffffffffffffffffffffffff1673ffffffffffffffffffffffffffffffffffffffff168152602001908152602001600020600082825401925050819055508173ffffffffffffffffffffffffffffffffffffffff16600073ffffffffffffffffffffffffffffffffffffffff167fddf252ad1be2c89b69c2b068fc378daa952ba7f163c4a11628f55a4df523b3ef8360405161024e91906106e5565b60405180910390a36102686000838361027160201b60201c565b5050565b505050565b505050565b600080fd5b6000819050919050565b61028e8161027b565b811461029957600080fd5b50565b6000815190506102ab81610285565b92915050565b6000602082840312156102c7576102c6610276565b5b60006102d58482850161029c565b91505092915050565b600081519050919050565b7f4e487b7100000000000000000000000000000000000000000000000000000000600052604160045260246000fd5b7f4e487b7100000000000000000000000000000000000000000000000000000000600052602260045260246000fd5b6000600282049050600182168061035f57607f821691505b60208210810361037257610371610318565b5b50919050565b60008190508160005260206000209050919050565b60006020601f8301049050919050565b600082821b905092915050565b6000600883026103da7fffffffffffffffffffffffffffffffffffffffffffffffffffffffffffffffff8261039d565b6103e4868361039d565b95508019841693508086168417925050509392505050565b6000819050919050565b600061042161041c6104178461027b565b6103fc565b61027b565b9050919050565b6000819050919050565b61043b83610406565b61044f61044782610428565b8484546103aa565b825550505050565b600090565b610464610457565b61046f818484610432565b505050565b5b818110156104935761048860008261045c565b600181019050610475565b5050565b601f8211156104d8576104a981610378565b6104b28461038d565b810160208510156104c1578190505b6104d56104cd8561038d565b830182610474565b50505b505050565b600082821c905092915050565b60006104fb600019846008026104dd565b1980831691505092915050565b600061051483836104ea565b9150826002028217905092915050565b61052d826102de565b67ffffffffffffffff811115610546576105456102e9565b5b6105508254610347565b61055b828285610497565b600060209050601f83116001811461058e576000841561057c578287015190505b6105868582610508565b8655506105ee565b601f19841661059c86610378565b60005b828110156105c45784890151825560018201915060208501945060208101905061059f565b868310156105e157848901516105dd601f8916826104ea565b8355505b6001600288020188555050505b505050505050565b600082825260208201905092915050565b7f45524332303a206d696e7420746f20746865207a65726f206164647265737300600082015250565b600061063d601f836105f6565b915061064882610607565b602082019050919050565b6000602082019050818103600083015261066c81610630565b9050919050565b7f4e487b7100000000000000000000000000000000000000000000000000000000600052601160045260246000fd5b60006106ad8261027b565b91506106b88361027b565b92508282019050808211156106d0576106cf610673565b5b92915050565b6106df8161027b565b82525050565b60006020820190506106fa60008301846106d6565b92915050565b6080516117916107306000396000818161043d01528181610521015281816105cb015261065201526117916000f3fe608060405234801561001057600080fd5b50600436106100ea5760003560e01c806370a082311161008c57806395d89b411161006657806395d89b411461025f578063a457c2d71461027d578063a9059cbb146102ad578063dd62ed3e146102dd576100ea565b806370a08231146101f55780638980f11f146102255780638da5cb5b14610241576100ea565b806323b872dd116100c857806323b872dd1461015b578063313ce5671461018b57806339509351146101a957806340c10f19146101d9576100ea565b806306fdde03146100ef578063095ea7b31461010d57806318160ddd1461013d575b600080fd5b6100f761030d565b6040516101049190610eea565b60405180910390f35b61012760048036038101906101229190610fa5565b61039f565b6040516101349190611000565b60405180910390f35b6101456103c2565b604051610152919061102a565b60405180910390f35b61017560048036038101906101709190611045565b6103cc565b6040516101829190611000565b60405180910390f35b6101936103fb565b6040516101a091906110b4565b60405180910390f35b6101c360048036038101906101be9190610fa5565b610404565b6040516101d09190611000565b60405180910390f35b6101f360048036038101906101ee9190610fa5565b61043b565b005b61020f600480360381019061020a91906110cf565b6104d7565b60405161021c919061102a565b60405180910390f35b61023f600480360381019061023a9190610fa5565b61051f565b005b610249610650565b604051610256919061110b565b60405180910390f35b610267610674565b6040516102749190610eea565b60405180910390f35b61029760048036038101906102929190610fa5565b610706565b6040516102a49190611000565b60405180910390f35b6102c760048036038101906102c29190610fa5565b61077d565b6040516102d49190611000565b60405180910390f35b6102f760048036038101906102f29190611126565b6107a0565b604051610304919061102a565b60405180910390f35b60606003805461031c90611195565b80601f016020809104026020016040519081016040528092919081815260200182805461034890611195565b80156103955780601f1061036a57610100808354040283529160200191610395565b820191906000526020600020905b81548152906001019060200180831161037857829003601f168201915b5050505050905090565b6000806103aa610827565b90506103b781858561082f565b600191505092915050565b6000600254905090565b6000806103d7610827565b90506103e48582856109f8565b6103ef858585610a84565b60019150509392505050565b60006012905090565b60008061040f610827565b905061043081858561042185896107a0565b61042b91906111f5565b61082f565b600191505092915050565b7f000000000000000000000000000000000000000000000000000000000000000073ffffffffffffffffffffffffffffffffffffffff163373ffffffffffffffffffffffffffffffffffffffff16146104c9576040517f08c379a00000000000000000000000000000000000000000000000000000000081526004016104c090611275565b60405180910390fd5b6104d38282610cfa565b5050565b60008060008373ffffffffffffffffffffffffffffffffffffffff1673ffffffffffffffffffffffffffffffffffffffff168152602001908152602001600020549050919050565b7f000000000000000000000000000000000000000000000000000000000000000073ffffffffffffffffffffffffffffffffffffffff163373ffffffffffffffffffffffffffffffffffffffff16146105ad576040517f08c379a00000000000000000000000000000000000000000000000000000000081526004016105a490611275565b60405180910390fd5b8173ffffffffffffffffffffffffffffffffffffffff1663a9059cbb7f0000000000000000000000000000000000000000000000000000000000000000836040518363ffffffff1660e01b8152600401610608929190611295565b6020604051808303816000875af1158015610627573d6000803e3d6000fd5b505050506040513d601f19601f8201168201806040525081019061064b91906112ea565b505050565b7f000000000000000000000000000000000000000000000000000000000000000081565b60606004805461068390611195565b80601f01602080910402602001604051908101604052809291908181526020018280546106af90611195565b80156106fc5780601f106106d1576101008083540402835291602001916106fc565b820191906000526020600020905b8154815290600101906020018083116106df57829003601f168201915b5050505050905090565b600080610711610827565b9050600061071f82866107a0565b905083811015610764576040517f08c379a000000000000000000000000000000000000000000000000000000000815260040161075b90611389565b60405180910390fd5b610771828686840361082f565b60019250505092915050565b600080610788610827565b9050610795818585610a84565b600191505092915050565b6000600160008473ffffffffffffffffffffffffffffffffffffffff1673ffffffffffffffffffffffffffffffffffffffff16815260200190815260200160002060008373ffffffffffffffffffffffffffffffffffffffff1673ffffffffffffffffffffffffffffffffffffffff16815260200190815260200160002054905092915050565b600033905090565b600073ffffffffffffffffffffffffffffffffffffffff168373ffffffffffffffffffffffffffffffffffffffff160361089e576040517f08c379a00000000000000000000000000000000000000000000000000000000081526004016108959061141b565b60405180910390fd5b600073ffffffffffffffffffffffffffffffffffffffff168273ffffffffffffffffffffffffffffffffffffffff160361090d576040517f08c379a0000000000000000000000000000000000000000000000000000000008152600401610904906114ad565b60405180910390fd5b80600160008573ffffffffffffffffffffffffffffffffffffffff1673ffffffffffffffffffffffffffffffffffffffff16815260200190815260200160002060008473ffffffffffffffffffffffffffffffffffffffff1673ffffffffffffffffffffffffffffffffffffffff168152602001908152602001600020819055508173ffffffffffffffffffffffffffffffffffffffff168373ffffffffffffffffffffffffffffffffffffffff167f8c5be1e5ebec7d5bd14f71427d1e84f3dd0314c0f7b2291e5b200ac8c7c3b925836040516109eb919061102a565b60405180910390a3505050565b6000610a0484846107a0565b90507fffffffffffffffffffffffffffffffffffffffffffffffffffffffffffffffff8114610a7e5781811015610a70576040517f08c379a0000000000000000000000000000000000000000000000000000000008152600401610a6790611519565b60405180910390fd5b610a7d848484840361082f565b5b50505050565b600073ffffffffffffffffffffffffffffffffffffffff168373ffffffffffffffffffffffffffffffffffffffff1603610af3576040517f08c379a0000000000000000000000000000000000000000000000000000000008152600401610aea906115ab565b60405180910390fd5b600073ffffffffffffffffffffffffffffffffffffffff168273ffffffffffffffffffffffffffffffffffffffff1603610b62576040517f08c379a0000000000000000000000000000000000000000000000000000000008152600401610b599061163d565b60405180910390fd5b610b6d838383610e50565b60008060008573ffffffffffffffffffffffffffffffffffffffff1673ffffffffffffffffffffffffffffffffffffffff16815260200190815260200160002054905081811015610bf3576040517f08c379a0000000000000000000000000000000000000000000000000000000008152600401610bea906116cf565b60405180910390fd5b8181036000808673ffffffffffffffffffffffffffffffffffffffff1673ffffffffffffffffffffffffffffffffffffffff16815260200190815260200160002081905550816000808573ffffffffffffffffffffffffffffffffffffffff1673ffffffffffffffffffffffffffffffffffffffff168152602001908152602001600020600082825401925050819055508273ffffffffffffffffffffffffffffffffffffffff168473ffffffffffffffffffffffffffffffffffffffff167fddf252ad1be2c89b69c2b068fc378daa952ba7f163c4a11628f55a4df523b3ef84604051610ce1919061102a565b60405180910390a3610cf4848484610e55565b50505050565b600073ffffffffffffffffffffffffffffffffffffffff168273ffffffffffffffffffffffffffffffffffffffff1603610d69576040517f08c379a0000000000000000000000000000000000000000000000000000000008152600401610d609061173b565b60405180910390fd5b610d7560008383610e50565b8060026000828254610d8791906111f5565b92505081905550806000808473ffffffffffffffffffffffffffffffffffffffff1673ffffffffffffffffffffffffffffffffffffffff168152602001908152602001600020600082825401925050819055508173ffffffffffffffffffffffffffffffffffffffff16600073ffffffffffffffffffffffffffffffffffffffff167fddf252ad1be2c89b69c2b068fc378daa952ba7f163c4a11628f55a4df523b3ef83604051610e38919061102a565b60405180910390a3610e4c60008383610e55565b5050565b505050565b505050565b600081519050919050565b600082825260208201905092915050565b60005b83811015610e94578082015181840152602081019050610e79565b60008484015250505050565b6000601f19601f8301169050919050565b6000610ebc82610e5a565b610ec68185610e65565b9350610ed6818560208601610e76565b610edf81610ea0565b840191505092915050565b60006020820190508181036000830152610f048184610eb1565b905092915050565b600080fd5b600073ffffffffffffffffffffffffffffffffffffffff82169050919050565b6000610f3c82610f11565b9050919050565b610f4c81610f31565b8114610f5757600080fd5b50565b600081359050610f6981610f43565b92915050565b6000819050919050565b610f8281610f6f565b8114610f8d57600080fd5b50565b600081359050610f9f81610f79565b92915050565b60008060408385031215610fbc57610fbb610f0c565b5b6000610fca85828601610f5a565b9250506020610fdb85828601610f90565b9150509250929050565b60008115159050919050565b610ffa81610fe5565b82525050565b60006020820190506110156000830184610ff1565b92915050565b61102481610f6f565b82525050565b600060208201905061103f600083018461101b565b92915050565b60008060006060848603121561105e5761105d610f0c565b5b600061106c86828701610f5a565b935050602061107d86828701610f5a565b925050604061108e86828701610f90565b9150509250925092565b600060ff82169050919050565b6110ae81611098565b82525050565b60006020820190506110c960008301846110a5565b92915050565b6000602082840312156110e5576110e4610f0c565b5b60006110f384828501610f5a565b91505092915050565b61110581610f31565b82525050565b600060208201905061112060008301846110fc565b92915050565b6000806040838503121561113d5761113c610f0c565b5b600061114b85828601610f5a565b925050602061115c85828601610f5a565b9150509250929050565b7f4e487b7100000000000000000000000000000000000000000000000000000000600052602260045260246000fd5b600060028204905060018216806111ad57607f821691505b6020821081036111c0576111bf611166565b5b50919050565b7f4e487b7100000000000000000000000000000000000000000000000000000000600052601160045260246000fd5b600061120082610f6f565b915061120b83610f6f565b9250828201905080821115611223576112226111c6565b5b92915050565b7f6e6f74206f776e65720000000000000000000000000000000000000000000000600082015250565b600061125f600983610e65565b915061126a82611229565b602082019050919050565b6000602082019050818103600083015261128e81611252565b9050919050565b60006040820190506112aa60008301856110fc565b6112b7602083018461101b565b9392505050565b6112c781610fe5565b81146112d257600080fd5b50565b6000815190506112e4816112be565b92915050565b600060208284031215611300576112ff610f0c565b5b600061130e848285016112d5565b91505092915050565b7f45524332303a2064656372656173656420616c6c6f77616e63652062656c6f7760008201527f207a65726f000000000000000000000000000000000000000000000000000000602082015250565b6000611373602583610e65565b915061137e82611317565b604082019050919050565b600060208201905081810360008301526113a281611366565b9050919050565b7f45524332303a20617070726f76652066726f6d20746865207a65726f2061646460008201527f7265737300000000000000000000000000000000000000000000000000000000602082015250565b6000611405602483610e65565b9150611410826113a9565b604082019050919050565b60006020820190508181036000830152611434816113f8565b9050919050565b7f45524332303a20617070726f766520746f20746865207a65726f20616464726560008201527f7373000000000000000000000000000000000000000000000000000000000000602082015250565b6000611497602283610e65565b91506114a28261143b565b604082019050919050565b600060208201905081810360008301526114c68161148a565b9050919050565b7f45524332303a20696e73756666696369656e7420616c6c6f77616e6365000000600082015250565b6000611503601d83610e65565b915061150e826114cd565b602082019050919050565b60006020820190508181036000830152611532816114f6565b9050919050565b7f45524332303a207472616e736665722066726f6d20746865207a65726f20616460008201527f6472657373000000000000000000000000000000000000000000000000000000602082015250565b6000611595602583610e65565b91506115a082611539565b604082019050919050565b600060208201905081810360008301526115c481611588565b9050919050565b7f45524332303a207472616e7366657220746f20746865207a65726f206164647260008201527f6573730000000000000000000000000000000000000000000000000000000000602082015250565b6000611627602383610e65565b9150611632826115cb565b604082019050919050565b600060208201905081810360008301526116568161161a565b9050919050565b7f45524332303a207472616e7366657220616d6f756e742065786365656473206260008201527f616c616e63650000000000000000000000000000000000000000000000000000602082015250565b60006116b9602683610e65565b91506116c48261165d565b604082019050919050565b600060208201905081810360008301526116e8816116ac565b9050919050565b7f45524332303a206d696e7420746f20746865207a65726f206164647265737300600082015250565b6000611725601f83610e65565b9150611730826116ef565b602082019050919050565b6000602082019050818103600083015261175481611718565b905091905056fea2646970667358221220b3f88dbba08dd773696acb8586da74ff112ca691fb761a8a01a5617642dc80c564736f6c634300081c0033",
  "linkReferences": {},
  "deployedLinkReferences": {}
}